{
  "_format": "hh-sol-artifact-1",
  "contractName": "Matcher",
  "sourceName": "contracts/Matcher.sol",
  "abi": [
    {
      "anonymous": false,
      "inputs": [
        {
          "indexed": false,
          "internalType": "string",
          "name": "txId",
          "type": "string"
        },
        {
          "indexed": false,
          "internalType": "bytes32",
          "name": "hashValue",
          "type": "bytes32"
        }
      ],
      "name": "MatchRequested",
      "type": "event"
    },
    {
      "anonymous": false,
      "inputs": [
        {
          "indexed": false,
          "internalType": "string",
          "name": "txId",
          "type": "string"
        },
        {
          "indexed": false,
          "internalType": "enum Matcher.MatchStatus",
          "name": "status",
          "type": "uint8"
        }
      ],
      "name": "MatchVerified",
      "type": "event"
    },
    {
      "inputs": [
        {
          "internalType": "string",
          "name": "txId",
          "type": "string"
        }
      ],
      "name": "getMatchStatus",
      "outputs": [
        {
          "internalType": "enum Matcher.MatchStatus",
          "name": "",
          "type": "uint8"
        },
        {
          "internalType": "bytes32",
          "name": "",
          "type": "bytes32"
        }
      ],
      "stateMutability": "view",
      "type": "function"
    },
    {
      "inputs": [
        {
          "internalType": "string",
          "name": "txId",
          "type": "string"
        },
        {
          "internalType": "bytes32",
          "name": "hashValue",
          "type": "bytes32"
        }
      ],
      "name": "registerMatch",
      "outputs": [],
      "stateMutability": "nonpayable",
      "type": "function"
    },
    {
      "inputs": [
        {
          "internalType": "string",
          "name": "txId",
          "type": "string"
        },
        {
          "internalType": "bytes32",
          "name": "hashValue",
          "type": "bytes32"
        }
      ],
      "name": "verifyMatch",
      "outputs": [],
      "stateMutability": "nonpayable",
      "type": "function"
    }
  ],
  "bytecode": "0x608060405234801561001057600080fd5b5061085a806100206000396000f3fe608060405234801561001057600080fd5b50600436106100415760003560e01c80631c2afdc2146100465780632829bd19146100775780634d6ce01814610093575b600080fd5b610060600480360381019061005b91906104fc565b6100af565b60405161006e9291906105d5565b60405180910390f35b610091600480360381019061008c919061062a565b6100f4565b005b6100ad60048036038101906100a8919061062a565b61024d565b005b600080600080846040516100c391906106f7565b908152602001604051809103902090508060010160009054906101000a900460ff1681600001549250925050915091565b6000808360405161010591906106f7565b908152602001604051809103902090506000600281111561012957610128610545565b5b8160010160009054906101000a900460ff16600281111561014d5761014c610545565b5b03610192577fbc70a0332840be0a6f1abff4ff164fcdf5fd54703b0def2920a1225687c8cd56836000604051610184929190610758565b60405180910390a150610249565b818160000154036101cf5760018160010160006101000a81548160ff021916908360028111156101c5576101c4610545565b5b02179055506101fd565b60028160010160006101000a81548160ff021916908360028111156101f7576101f6610545565b5b02179055505b7fbc70a0332840be0a6f1abff4ff164fcdf5fd54703b0def2920a1225687c8cd56838260010160009054906101000a900460ff1660405161023f929190610758565b60405180910390a1505b5050565b6000600281111561026157610260610545565b5b60008360405161027191906106f7565b908152602001604051809103902060010160009054906101000a900460ff1660028111156102a2576102a1610545565b5b146102e2576040517f08c379a00000000000000000000000000000000000000000000000000000000081526004016102d9906107d4565b60405180910390fd5b60405180604001604052808281526020016001600281111561030757610306610545565b5b81525060008360405161031a91906106f7565b90815260200160405180910390206000820151816000015560208201518160010160006101000a81548160ff0219169083600281111561035d5761035c610545565b5b02179055509050507f4485f7bf82a22f39a159d75ed7218ab9b35f483bff95a177b120b1bcab4a94c882826040516103969291906107f4565b60405180910390a15050565b6000604051905090565b600080fd5b600080fd5b600080fd5b600080fd5b6000601f19601f8301169050919050565b7f4e487b7100000000000000000000000000000000000000000000000000000000600052604160045260246000fd5b610409826103c0565b810181811067ffffffffffffffff82111715610428576104276103d1565b5b80604052505050565b600061043b6103a2565b90506104478282610400565b919050565b600067ffffffffffffffff821115610467576104666103d1565b5b610470826103c0565b9050602081019050919050565b82818337600083830152505050565b600061049f61049a8461044c565b610431565b9050828152602081018484840111156104bb576104ba6103bb565b5b6104c684828561047d565b509392505050565b600082601f8301126104e3576104e26103b6565b5b81356104f384826020860161048c565b91505092915050565b600060208284031215610512576105116103ac565b5b600082013567ffffffffffffffff8111156105305761052f6103b1565b5b61053c848285016104ce565b91505092915050565b7f4e487b7100000000000000000000000000000000000000000000000000000000600052602160045260246000fd5b6003811061058557610584610545565b5b50565b600081905061059682610574565b919050565b60006105a682610588565b9050919050565b6105b68161059b565b82525050565b6000819050919050565b6105cf816105bc565b82525050565b60006040820190506105ea60008301856105ad565b6105f760208301846105c6565b9392505050565b610607816105bc565b811461061257600080fd5b50565b600081359050610624816105fe565b92915050565b60008060408385031215610641576106406103ac565b5b600083013567ffffffffffffffff81111561065f5761065e6103b1565b5b61066b858286016104ce565b925050602061067c85828601610615565b9150509250929050565b600081519050919050565b600081905092915050565b60005b838110156106ba57808201518184015260208101905061069f565b60008484015250505050565b60006106d182610686565b6106db8185610691565b93506106eb81856020860161069c565b80840191505092915050565b600061070382846106c6565b915081905092915050565b600082825260208201905092915050565b600061072a82610686565b610734818561070e565b935061074481856020860161069c565b61074d816103c0565b840191505092915050565b60006040820190508181036000830152610772818561071f565b905061078160208301846105ad565b9392505050565b7f416c726561647920726567697374657265640000000000000000000000000000600082015250565b60006107be60128361070e565b91506107c982610788565b602082019050919050565b600060208201905081810360008301526107ed816107b1565b9050919050565b6000604082019050818103600083015261080e818561071f565b905061081d60208301846105c6565b939250505056fea2646970667358221220153ef73967176b4e658aa03936d11b8a10a8961d72fc5bbd12bf0f66b782b0f564736f6c63430008140033",
  "linkReferences": {},
  "deployedLinkReferences": {}
}